:020000020000FC
:200000000040013408408C140800683A0000000000000000000000000000000000000000D9
:20000800DEFFED04DFC00015D8400215D8800315D8C00415D9000515D9400615D98007156A
:20001000D9C00815000B307ADA000915DA400A15DA800B15DAC00C15DB000D15DB400E15C4
:20001800DB800F15DBC01015D9401115EBFFFF04DBC012150009313A2880004C10000326FA
:200020002000022600400FC000000706DF401215E8BFFF17E93FFF0400401D001000021EA1
:20002800EBFFFF04DBC01215D9401117DF401217DFC000172801707AD8400217D880031714
:20003000D8C00417D9000517D9400617D9800717D9C00817DA000917DA400A17DA800B17F2
:20003800DAC00C17DB000D17DB400E17DB800F17DBC01017DEC01304EF80083ADEFFF90429
:20004000DFC00615DF000515DF0005040001883A0005313AE0BFFE15E0BFFE17E0BFFB15BD
:20004800E03FFD1500800044E0BFFC15E0FFFB17E0BFFC171884703A10001426008001340B
:200050001097B104E0FFFD17180690FA10C5883A10C00017008001341097B104E13FFD17D6
:20005800200890FA1105883A10800104108000171009883A183EE83A0001883A0005313A3C
:20006000E0BFFF15E0BFFF1700000706E0BFFC171085883AE0BFFC15E0BFFD1710800044CB
:20006800E0BFFD15003FE106E0BFFB15E0BFFB17103FDB1E0001883A0001883AE037883A9A
:20007000DFC00117DF000017DEC00204F800283ADEFFFB04DFC00415DF000315DF00030454
:20007800E13FFF1500BFFFC4E0BFFD15E03FFE15D0A4D81710000726D0A4D817E0FFFD17D9
:20008000E1BFFE17E17FFF171809883A103EE83A00000206003DA03A0005883AE037883A23
:20008800DFC00117DF000017DEC00204F800283A06C001B4DEC0001406800134D6B2D81451
:20009000008001341097A81400C0013418D7F11410C00326100000151080010410FFFD365A
:2000980000413B4000414380003FFF06DEFFFF04DF000015D839883A00C0004400800234E3
:2000A0001084280410C000350001883AE037883ADF000017DEC00104F800283ADEFFFF040C
:2000A800DF000015D839883A0007883A008002341084280410C000350001883AE037883A91
:2000B000DF000017DEC00104F800283ADEFFFF04DF000015D839883A00C0004400800234DC
:2000B8001084300410C000350001883AE037883ADF000017DEC00104F800283ADEFFFF04EC
:2000C000DF000015D839883A0007883A008002341084300410C000350001883AE037883A71
:2000C800DF000017DEC00104F800283ADEFFFF04DF000015D839883A00C0004400800234C4
:2000D0001084340410C000350001883AE037883ADF000017DEC00104F800283ADEFFFF04D0
:2000D800DF000015D839883A0007883A008002341084340410C000350001883AE037883A55
:2000E000DF000017DEC00104F800283ADEFFFD04DFC00215DF000115DF000104004035C06B
:2000E800E03FFF1500000306E0BFFF1710800044E0BFFF15E0BFFF1710801910103FFA1EAB
:2000F000004026C000402FC0004032C000403E800001883AE037883ADFC00117DF00001722
:2000F800DEC00204F800283ADEFFFE04DFC00115DF000015D839883A01003C040040BAC094
:20010000010016840040BF40010016840040BF4001003C440040BAC0010016840040BF4016
:20010800010016840040BF4001003C840040BAC001000EC40040BF4001000CC40040BF4060
:20011000010000C40040BF40010003C40040BF40010003C40040BF40010002040040BF4077
:20011800010002040040BF400009883A0040BF40010002040040BF40010002040040BF40EB
:200120000009883A0040BF400009883A0040BF400009883A0040BF400009883A0040BF4097
:2001280001000CC40040BF40010003C40040BF40010003C40040BF40010003C40040BF4092
:20013000010003C40040BF4001003D040040BAC0010001C40040BF400009883A0040BF409D
:200138000009883A0040BF400009883A0040BF400009883A0040BF400009883A0040BF407F
:200140000009883A0040BF400009883A0040BF40010001040040BF4001001C040040BF40E6
:20014800010000C40040BF40010001040040BF4001001C040040BF40010000C40040BF40EA
:2001500001003D440040BAC00009883A0040BF40010011840040BF4001001C040040BF4014
:200158000009883A0040BF400009883A0040BF40010000840040BF400009883A0040BF40A5
:200160000009883A0040BF400009883A0040BF400009883A0040BF40010011840040BF408C
:2001680001001C040040BF4001003D840040BAC0010000C40040BF400009883A0040BF408D
:20017000010002040040BF40010000C40040BF40010000C40040BF400009883A0040BF4017
:20017800010000C40040BF400009883A0040BF4001003DC40040BAC0010012040040BF4047
:20018000010020040040BF400009883A0040BF40010000840040BF400009883A0040BF4023
:2001880001003E040040BAC0010004440040BF400009883A0040BF4001003E440040BAC08B
:20019000010005040040BF4001003E840040BAC001000CC40040BF40010001C40040BF4074
:20019800010001040040BF40010006840040BF40010006040040BF40010007040040BF40A3
:2001A000010009040040BF40010007440040BF40010009840040BF4001000A040040BF404C
:2001A80001000BC40040BF4001000B840040BF400009883A0040BF400009883A0040BF4045
:2001B0000009883A0040BF400009883A0040BF4001003EC40040BAC001000CC40040BF404E
:2001B800010000C40040BF400009883A0040BF4001000B840040BF4001000BC40040BF403B
:2001C00001000A040040BF40010009840040BF40010007440040BF40010009040040BF402C
:2001C800010007040040BF40010006040040BF40010006840040BF40010001040040BF4073
:2001D0000009883A0040BF400009883A0040BF400009883A0040BF4001003E440040BAC0B4
:2001D800010004840040BF4001003E840040BAC001000D840040BF40010001C40040BF40EC
:2001E000010001040040BF40010007040040BF40010007040040BF40010008C40040BF4018
:2001E80001000A040040BF40010007040040BF40010009440040BF40010009840040BF4004
:2001F00001000B840040BF4001000AC40040BF400009883A0040BF400009883A0040BF40FE
:2001F8000009883A0040BF400009883A0040BF4001003EC40040BAC001000CC40040BF4006
:20020000010001840040BF400009883A0040BF4001000AC40040BF4001000B840040BF4032
:20020800010009840040BF40010009440040BF40010007040040BF4001000A040040BF40E3
:20021000010008C40040BF40010007040040BF40010007040040BF40010001040040BF40E7
:200218000009883A0040BF400009883A0040BF400009883A0040BF4001003E440040BAC06B
:20022000010004440040BF4001003E840040BAC001000CC40040BF40010001C40040BF40A4
:20022800010001040040BF4001000C040040BF4001000C840040BF4001000D040040BF4000
:2002300001000D440040BF40010004440040BF40010007440040BF40010008040040BF40BE
:2002380001000A040040BF40010008040040BF400009883A0040BF400009883A0040BF40F8
:200240000009883A0040BF400009883A0040BF4001003EC40040BAC001000CC40040BF40BD
:20024800010000C40040BF400009883A0040BF40010008040040BF4001000A040040BF40EE
:20025000010008040040BF40010007440040BF40010004440040BF4001000D440040BF409E
:2002580001000D040040BF4001000C840040BF4001000C040040BF40010001040040BF40D0
:200260000009883A0040BF400009883A0040BF400009883A0040BF40010011040040BAC090
:200268000009883A0040BF40010000440040BF4001000A840040BAC00009883A0040BF4095
:200270000009883A0040BF40010000440040BF40010037C40040BF4001000AC40040BAC01C
:200278000009883A0040BF400009883A0040BF40010000440040BF4001000FC40040BF40BB
:2002800001000D840040BAC00009883A0040BF4001000E840040BAC0010015440040BF4022
:20028800010004440040BAC001001E0400414B4001000A440040BAC001000B040040BAC091
:200290000100028400414B4001000D840040BAC0010018040040BF400001883AE037883AB7
:20029800DFC00117DF000017DEC00204F800283ADEFFFB04DFC00415DF000315DF0003042A
:2002A00001000A840040BAC00009883A0040BF400009883A0040BF40010000440040BF405D
:2002A800010037C40040BF4001000AC40040BAC00009883A0040BF400009883A0040BF405E
:2002B000010000440040BF4001000FC40040BF4001000B040040BAC0E03FFD15E03FFE156A
:2002B800E03FFF15E03FFD1500002706E03FFE1500001F06E0BFFD1710801E081000051EA2
:2002C00001003E040040BF400009883A0040BF4000001406E0BFFD1710803C081000051EBE
:2002C8000009883A0040BF40010007C40040BF4000000C06E0BFFD1710805A081000051E17
:2002D000010001C40040BF40010038040040BF400000040601003FC40040BF400100380403
:2002D8000040BF40E0BFFE1710800044E0BFFE15E0BFFE1710805010103FDE1EE0BFFD17EB
:2002E00010800044E0BFFD15E0BFFD1710807810103FD61E0001883AE037883ADFC0011718
:2002E800DF000017DEC00204F800283ADEFFFD04DFC00215DF000115DF0001042005883AAE
:2002F000E0BFFF0500402FC0004029C0E0BFFF031009883A00410240004026C00001883A0B
:2002F800E037883ADFC00117DF000017DEC00204F800283ADEFFFD04DFC00215DF000115D9
:20030000DF0001042005883AE0BFFF0500402CC0004029C0E0BFFF031009883A004102401B
:20030800004026C00001883AE037883ADFC00117DF000017DEC00204F800283ADEFFFE0489
:20031000DF000115DF00010400C00044008002341084000410C00035E03FFF1500C07FB477
:2003180018C057840080023410840C0410C000350080023410840C0410800037E0BFFF15DF
:2003200000C0283418CF03C4008002341084100410C0003500C0283418CF03C40080023410
:200328001084140410C0003500C0403418FFC004008002341084080410C0003500C03FC4D7
:20033000008002341084040410C00035008002341084100410800037E0BFFF1500800234C8
:200338001084140410800037E0BFFF150001883AE037883ADF000017DEC00104F800283AF0
:20034000DEFFFE04DFC00115DF000015D839883A010001040040EF80E037883ADFC00117FD
:20034800DF000017DEC00204F800283ADEFFFD04DFC00215DF000115DF000104E13FFF1500
:20035000E17FFF17010001040040F4800001883AE037883ADFC00117DF000017DEC0020470
:20035800F800283ADEFFFE04DFC00115DF000015D839883A010002040040EF80E037883A41
:20036000DFC00117DF000017DEC00204F800283ADEFFFD04DFC00215DF000115DF00010465
:20036800E13FFF15E17FFF17010002040040F4800001883AE037883ADFC00117DF000017C7
:20037000DEC00204F800283ADEFFFD04DFC00215DF000115DF0001040009883A0040EF8088
:20037800E0BFFF15E0BFFF1710A00034100B883A0009883A0040F4800001883AE037883A21
:20038000DFC00117DF000017DEC00204F800283ADEFFFC04DFC00315DF000215DF00020443
:200388002005883AE0BFFF050009883A0040EF80E0BFFE15E0BFFF0310000426E0BFFE1710
:2003900010900034E0BFFE1500000506E0FFFE1700B0003410BFFFC41884703AE0BFFE155A
:20039800E17FFE170009883A0040F4800001883AE037883ADFC00117DF000017DEC0020464
:2003A000F800283ADEFFFC04DFC00315DF000215DF0002042005883AE0BFFF050009883A1F
:2003A8000040EF80E0BFFE15E0BFFF0310000426E0BFFE1710880034E0BFFE1500000506BC
:2003B000E0FFFE1700B8003410BFFFC41884703AE0BFFE15E17FFE170009883A0040F480CF
:2003B8000001883AE037883ADFC00117DF000017DEC00204F800283ADEFFFD04DF0002150A
:2003C000DF0002042005883AE0BFFF05E03FFE15E0BFFF031085883A1085883A1007883A54
:2003C80000800234108400041885883A10800037E0BFFE15E0BFFE17E037883ADF0000176C
:2003D000DEC00104F800283ADEFFFD04DF000215DF0002042005883AE17FFF15E0BFFE055A
:2003D800E0BFFE031085883A1085883A1007883A00800234108400041885883AE0FFFF173C
:2003E00010C000350001883AE037883ADF000017DEC00104F800283ADEFFFF04DF00001595
:2003E800D839883A00C00044008002341084240410C0003500C00044008002341084200435
:2003F00010C0003500800104D0A4D0150001883AE037883ADF000017DEC00104F800283A7B
:2003F800DEFFFD04DF000215DF000204E13FFF15E03FFE1500000306E0BFFE171080004435
:20040000E0BFFE15E0FFFE17E0BFFF1718BFFA160001883AE037883ADF000017DEC0010465
:20040800F800283ADEFFFB04DFC00415DF000315DF0003042005883AE0BFFF05E03FFD055E
:20041000E03FFE1500002406D0A4D0171009883A0040FE000007883A0080023410842404C1
:2004180010C00035E0FFFF03010001C4E0BFFE172085C83A1885D83A10C0004C008002343C
:200420001084200410C00035D0A4D0171009883A0040FE0000C00044008002341084240415
:2004280010C00035E0BFFD031085883AE0BFFD050080023410842C04108000371007883AFE
:20043000E0BFFD031884B03AE0BFFD05E0BFFE1710800044E0BFFE15E0BFFE171080021056
:20043800103FD91ED0A4D0171009883A0040FE00E0BFFD03E037883ADFC00117DF000017C5
:20044000DEC00204F800283ADEFFFD04DFC00215DF000115DF00010401000134210E0B04BD
:20044800004120C00040F980004038C00040C3C001003DC40040BAC0010012040040BF40AD
:20045000010020440040BF400009883A0040BF40010000840040BF400009883A0040BF4010
:20045800E03FFF1500C0C004008002341084000410C00035E03FFF150080023410840004F9
:2004600010800037E0BFFF15003FFF06DEFFFD04DC0000152021883A2809883ADFC0021543
:20046800DC4001152823883A00412200814002170100013421048F0429000115100F883AEA
:20047000880D883A8009883A004123C000FFFFC410C00926814002170180013401C0004450
:2004780028800117318E10048009883A103EE83A10BFFFE00085C83ADFC00217DC400117F5
:20048000DC000017DEC00304F800283A008001341092D904200B883A11000017004118C107
:200488002005883A10C000071800022610800044003FFC061105C83AF800283A2880000B1C
:200490001080020C100021262880008FDEFFFA04DC000015DFC00515DD000415DCC00315F1
:20049800DC800215DC4001152821883A100012162027883A3025883A3823883A0501000415
:2004A00004400B0E880F883AA440010E01C100048140008F900D883A9809883A00412F400B
:2004A8000080050E88A3C83A90A5883A003FF4060005883A000007068080000B10801014B1
:2004B0008080000D00BFFFC40000020600BFFFC4F800283ADFC00517DD000417DCC0031750
:2004B800DC800217DC400117DC000017DEC00604F800283ADEFFFD04DC000015040001347E
:2004C000DC4001158417A9042023883A2809883A300B883A380D883ADFC00215800000155B
:2004C8000041520000FFFFC410C0031E80C000171800012688C00015DFC00217DC400117EF
:2004D000DC000017DEC00304F800283ADEFFFC04DF000315DF000304E13FFD15E17FFE15BB
:2004D800E1BFFF15E0FFFE17E0BFFD1718800C2600000806E0BFFE1710C00104E0FFFE1556
:2004E000E0FFFD1719000104E13FFD1518C0001710C00015E0FFFE17E0BFFF1718BFF51E52
:2004E8000001883AE037883ADF000017DEC00104F800283ADEFFFE04DFC00115DF000015DD
:2004F000D839883A018001343192E30401400134294E1E04010001342112E304004134C025
:2004F8000180013431808C0401400134294008040100013421000804004134C001800134B4
:20050000318E1E0401400134294E0B0401000134210E0B04004134C000424D4000426C00D8
:200508000001883AE037883ADFC00117DF000017DEC00204F800283ADEFFFD04DFC00215F8
:20051000DF000115DF0001040009883A004165400001883A004168C001800134318E11048B
:2005180001400134294E110401000134210E11040042A64000426000010001342109980481
:2005200000432A80D0A4D217D0E4D317D124D417200D883A180B883A1009883A0041108073
:20052800E0BFFF150100004400423FC0E13FFF1700432BC0DEFFFD04DFC00215DF0001158D
:20053000DF000104E13FFF15E13FFF1700422680E037883ADFC00117DF000017DEC002044B
:20053800F800283ADEFFFE04DFC00115DF000015D839883AD0A0071710000326D0A0071799
:20054000103EE83A00000106D0A4D104E037883ADFC00117DF000017DEC00204F800283A57
:20054800DEFFF904DFC00615DF000515DF000504E13FFD15E17FFE15E1BFFF15E0BFFD1712
:200550001000081601400304E13FFD1700437D001007883A00800134109278041885883A16
:20055800000001060005883AE0BFFB15E0BFFB1710002126E0BFFB1710800217108000CC48
:2005600010001826E0BFFB17108000171080061710001426E0BFFB171080001710800617D9
:20056800E0FFFF17180D883AE17FFE17E13FFB17103EE83AE0BFFC15E0BFFC171000070EF9
:2005700000414E401007883AE0BFFC170085C83A1880001500BFFFC400000C06E0BFFC1797
:2005780000000A0600414E401007883A00800344188000150000040600414E401007883A85
:20058000008014441880001500BFFFC4E037883ADFC00117DF000017DEC00204F800283AD0
:20058800DEFFFD04DFC00215DF000115DF000104E13FFF15D1600404E13FFF17004255C0EC
:20059000E037883ADFC00117DF000017DEC00204F800283ADEFFFD04DFC00215DF0001153E
:20059800DF000104E13FFF150042F8C0008000441001703A0001883AE037883ADFC001175F
:2005A000DF000017DEC00204F800283ADEFFFE04DFC00115DF000015D839883A000D883A1D
:2005A800000B883A01000134210E60040041838001000134210E5604004162000001883A34
:2005B000E037883ADFC00117DF000017DEC00204F800283ADEFFFA04DFC00515DF0004151B
:2005B800DF000404E13FFD15E17FFE15E1BFFF15E0BFFD1710800017E0BFFC15E0BFFC1727
:2005C00010C00A04E0BFFD1710800217100F883AE1BFFF17E17FFE171809883A0041CFC022
:2005C800E037883ADFC00117DF000017DEC00204F800283ADEFFFA04DFC00515DF00041503
:2005D000DF000404E13FFD15E17FFE15E1BFFF15E0BFFD1710800017E0BFFC15E0BFFC170F
:2005D80010C00A04E0BFFD1710800217100F883AE1BFFF17E17FFE171809883A0041F18028
:2005E000E037883ADFC00117DF000017DEC00204F800283ADEFFFC04DFC00315DF000215ED
:2005E800DF000204E13FFF15E0BFFF1710800017E0BFFE15E0BFFE1710C00A04E0BFFF1785
:2005F00010800217100B883A1809883A0041BA40E037883ADFC00117DF000017DEC002041D
:2005F800F800283ADEFFFA04DFC00515DF000415DF000404E13FFD15E17FFE15E1BFFF15BD
:20060000E0BFFD1710800017E0BFFC15E0BFFC1710800A04E1BFFF17E17FFE171009883A7A
:200608000041C0C0E037883ADFC00117DF000017DEC00204F800283ADEFFFA04DFC00515F9
:20061000DF000415DF000404E13FFD15E17FFE15E1BFFF15E0BFFD1700C0004410C00815EE
:20061800E0BFFD1710800017108001041007883AE0BFFD171080081718800035E0BFFE1717
:20062000E0FFFF17D8000015E1FFFD170180013431863E04180B883A1009883A00426E00C5
:20062800E0BFFD1710000915E0BFFD1710800204D0E4D617E1FFFD17018001343186C104C1
:20063000180B883A1009883A004213C01000040EE0FFFD1700A0003410BFFFC418800115AC
:200638000001883AE037883ADFC00117DF000017DEC00204F800283ADEFFF804DF00071587
:20064000DF000704E13FFF15E0BFFF17E0BFFB15E0BFFB1710800017E0BFFC15E0BFFC175E
:200648001080010410800037E0BFFD15E0BFFD171080C00C10006D26E0BFFD171080400C44
:200650001000352600800074E0BFF915E0BFFB1710800A17108000441081FFCCE0BFFE153A
:20065800E0BFFB1710C00B17E0BFFE1718801526E0BFFC1710800037E0BFF915E0BFF91783
:2006600010A0000C10001126E0BFFB1710800A17E0FFF9171809883AE0FFFB171885883AF3
:2006680010800E0411000005E0BFFB1710800A171080004410C1FFCCE0BFFB1710C00A1548
:20067000003FE2060001883A000001060001883AE0BFF91710BFFFEC10000F26E0BFFB1757
:2006780010C0081700BFFF841886703AE0BFFB1710C00815E0BFFC17108001041007883A2B
:20068000E0BFFB171080081718800035E0BFFC171080010410800037E0BFFD171080800C50
:20068800103FBE26E0BFFD171004D43AE0BFFA1500001406E0BFFC17E0FFFB1718C00D17E3
:20069000E13FFB1720C7883A18C20E0418C0000318C03FCC18C0201C18FFE00410C00035B1
:20069800E0BFFB1710800D171080004410C1FFCCE0BFFB1710C00D15E0BFFA1710BFFFC488
:2006A000E0BFFA15E0BFFA1710000526E0BFFB1710C00D17E0BFFB1710800C1718BFE51EBE
:2006A800E0BFFA17103F9D26E0BFFB1710C0081700BFFF441886703AE0BFFB1710C00815E8
:2006B000E0BFFB1710800017108001041007883AE0BFFB171080081718800035E0BFFC1785
:2006B8001080010410800037003F8C060001883A0001883AE037883ADF000017DEC00104FD
:2006C000F800283ADEFFF804DF000715DF000704E13FFB15E0BFFB17E0BFF915E0BFF917C5
:2006C800108000171080010410800037E0BFFA15E0BFFA171081000C10000B26E0BFF91724
:2006D00010800017108001041007883AE0BFF917108008171081001418800035E0BFF91776
:2006D8001000091500000A06E0BFF91710C0091700A0003410BFFF0410C00536E0BFF917C5
:2006E0001080091710C00044E0BFF91710C00915D0A4D617E037883ADF000017DEC00104C6
:2006E800F800283ADEFFFD04DF000215DF000204E13FFE15E17FFF1500000506E0BFFF1778
:2006F0001090000C1000022600BFFD4400000B06E0BFFE1710C00D17E0BFFE1710800C17E6
:2006F80018800526E0BFFE1710C00917E0BFFE171080011718BFF1360005883AE037883A81
:20070000DF000017DEC00104F800283ADEFFFA04DF000515DF000504E13FFD15E17FFE1585
:20070800E1BFFF1500BFF9C4E0BFFB15E0BFFE1710DA80601800031E109A80A01000181E2B
:2007100000002906E0BFFD1710C0011700A0003410BFFFC418802126E0BFFF17108000175E
:20071800E0BFFC15E0BFFC17108000901000061EE0FFFC1700A0003410BFFFC418800226F3
:20072000E0BFFC170000020600A0003410BFFF84E0FFFD1718800115E03FFB1500000F06F4
:20072800E0BFFD1710C0011700A0003410BFFFC418800C26E0BFFD1710C00917E0BFFD1790
:20073000108001171885803A10C03FCCE0BFFF1710C00015E03FFB15000002060001883A3B
:20073800000001060001883AE0BFFB17E037883ADF000017DEC00104F800283ADEFFF30486
:20074000DFC00C15DF000B15DF000B04E13FFC15E17FFD15E1BFFE15E1FFFF15E0BFFD17EF
:20074800E0BFF51500004706E0BFFC1710800A17E0BFF715E0BFFC1710800B17E0BFF8157D
:20075000E0FFF717E0BFF81718800536E0FFF717E0BFF8171885C83AE0BFF615000004062D
:2007580000C20004E0BFF8171885C83AE0BFF615E0BFF61710001E26E0FFFE17E0BFF61724
:200760001880022EE0BFFE17E0BFF615E0BFFC1710C00E04E0BFF8171885883AE1BFF61705
:20076800100B883AE13FF517004330C0E0FFF517E0BFF6171885883AE0BFF515E0FFFE17A2
:20077000E0BFF6171885C83AE0BFFE15E0FFF817E0BFF6171885883A10C1FFCCE0BFFC1725
:2007780010C00B15E0BFFE1700BFCF16000001060001883AE0FFF517E0BFFD171880141EE7
:20078000E0BFFF171090000C1000131E0001883AE0BFFC1710C00A17E0BFF7171880051EE9
:20078800E0BFFC1710C00917E0BFFC171080011718BFF736E0BFFC1710C00A17E0BFF71701
:2007900018800726E0BFFE1700BFB716000005060001883A000003060001883A00000106A3
:200798000001883AE0FFF517E0BFFD17188018260005303AE0BFFB15E0FFFB1700BFFF84B9
:2007A0001884703A1001703AE0BFFB17E0BFFA15E0BFFC171080081710C00054E0BFFC17A2
:2007A80010C00815E0BFFC1710800017108001041007883AE0BFFC1710800817188000354F
:2007B000E0BFFA17E0BFF915E0BFF9171001703AE0FFF517E0BFFD1718800426E0FFF51717
:2007B800E0BFFD171885C83A00000606E0BFFF171090000C1000022600BFFD440000010623
:2007C00000BFFEC4E037883ADFC00117DF000017DEC00204F800283ADEFFF304DFC00C1580
:2007C800DF000B15DF000B04E13FFC15E17FFD15E1BFFE15E1FFFF15E03FF515E0BFFD17FE
:2007D000E0BFF71500003706E0BFFC1710800C17E0BFF915E0BFFC1710800D17E0BFF51500
:2007D800E0FFF917E0BFF5171880062EE0FFF517E0BFF9171885C83A10BFFFC4E0BFF61526
:2007E00000000B06E0BFF5171000052600C20004E0BFF9171885C83AE0BFF615000004063A
:2007E80000C1FFC4E0BFF9171885C83AE0BFF615E0BFF61710001E26E0FFFE17E0BFF617D5
:2007F0001880022EE0BFFE17E0BFF615E0BFFC1710C20E04E0BFF9171885883AE1BFF61772
:2007F800E17FFD171009883A004330C0E0FFFD17E0BFF6171885883AE0BFFD15E0FFFE17BC
:20080000E0BFF6171885C83AE0BFFE15E0FFF917E0BFF6171885883A10C1FFCCE0BFFC1793
:2008080010C00C15E0BFFE1700BFC716000001060001883A0005303AE0BFFB15E0FFFB17B6
:2008100000BFFF841884703A1001703AE0BFFB17E0BFFA15E0BFFC171080081710C0009461
:20081800E0BFFC1710C00815E0BFFC1710800017108001041007883AE0BFFC1710800817F9
:2008200018800035E0BFFA17E0BFF815E0BFF8171001703AE0BFFE170080100EE0BFFF171F
:200828001090000C1000101E0001883AE0BFFC1710C00D17E0BFF5171880051EE0BFFC1745
:2008300010C00917E0BFFC171080011718BFF736E0BFFC17108009171000051EE0BFFE1711
:2008380000BFD016000003060001883A000001060001883AE0FFFD17E0BFF7171880042603
:20084000E0FFFD17E0BFF7171885C83A00000606E0BFFF171090000C1000022600BFFD44B4
:200848000000010600BFFEC4E037883ADFC00117DF000017DEC00204F800283ADEFFF504AE
:20085000DF000A15DF000A04E13FFC15E17FFD15E1BFFE15E1FFFF15E03FF615D0A4D617C8
:2008580010003C26E0BFFC1710003826E0BFFC17E0FFFE1710C00315E0BFFC17E0FFFF17B9
:2008600010C005150005303AE0BFF915E0FFF91700BFFF841884703A1001703AE0BFF91791
:20086800E0BFF815D0A4D717E0BFF615E0FFFD17E0BFF6171885883A10C00044E0BFFC17F4
:2008700010C00215E0BFFC1710C00217E0BFF6171880042EE0BFFC1700C0004410C00405E1
:2008780000000206E0BFFC1710000405E0BFFC17D0E00904E0FFFA15E0BFFB15E0BFFB17D0
:20088000E0FFFA1710C00115E0BFFA1710C00017E0BFFB1710C00015E0BFFA1710800017FE
:20088800E0FFFB1710C00115E0BFFA17E0FFFB1710C00015E0BFF817E0BFF715E0BFF717ED
:200890001001703A0005883A0000030600BFFA840000010600BFDE84E037883ADF00001789
:20089800DEC00104F800283ADEFFFA04DFC00515DF000415DF000404E13FFF1500800244D6
:2008A000E0BFFD15014003F429509004E13FFD1700437D00100B883A0100BEF4213C20043D
:2008A80000437140100B883A01200034213FFFC400437140100B883AE13FFF1700437140EC
:2008B000E0BFFE15E0BFFE1710002A26E03FFC150000170600A0003410BFFFC410BFFFC41D
:2008B800103FFE1E014003F429509004E13FFD1700437D00100B883A0100BEF4213C20046B
:2008C00000437140100B883A01200034213FFFC4004371401007883AE0BFFF1710C5C83A76
:2008C800E0BFFF15E0BFFC1710800044E0BFFC15E0FFFC17E0BFFE1718BFE616014003F476
:2008D00029509004E13FFD1700437D00100B883A0100BEF4213C200400437140E17FFF178C
:2008D8001009883A00437D0010BFFFC4103FFE1E00000D06014003F429509004E13FFD17DC
:2008E00000437D00100B883A0100BEF4213C200400437140E17FFF171009883A00437D0022
:2008E80010BFFFC400BFFE160005883AE037883ADFC00117DF000017DEC00204F800283A40
:2008F000DEFFFE04DFC00115DF000015D839883AD0A0071710000326D0A00717103EE83AC8
:2008F80000000106D0A4D104E037883ADFC00117DF000017DEC00204F800283ADEFFFB0430
:20090000DFC00415DF000315DF000304E13FFF15E0BFFF171000081601400304E13FFF17AD
:2009080000437D001007883A00800134109278041885883A000001060005883AE0BFFD1585
:20091000E0BFFD1710001926E0BFFD17108000171080041710000626E0BFFD17108000172A
:2009180010800417E13FFD17103EE83A000001060005883AE0BFFE15E13FFF170042D64062
:20092000E0BFFE171000070E00423C001007883AE0BFFE170085C83A1880001500BFFFC41D
:20092800000007060005883A0000050600423C001007883A008014441880001500BFFFC472
:20093000E037883ADFC00117DF000017DEC00204F800283ADEFFFF04DF000015D839883A7C
:200938000001883AE037883ADF000017DEC00104F800283ADEFFFC04DF000315DF00030456
:20094000E13FFD15E17FFE15E1BFFF15E0BFFF17E037883ADF000017DEC00104F800283ABD
:20094800DEFFFE04DFC00115DF000015D839883AD0A0071710000326D0A00717103EE83A6F
:2009500000000106D0A4D104E037883ADFC00117DF000017DEC00204F800283ADEFFFA04D8
:20095800DFC00515DF000415DF000404E13FFE15E17FFF15E0BFFE1710000326E0BFFE179F
:20096000108002171000061E004252001007883A008005841880001500BFFA840000130621
:20096800E0BFFE17E0FFFF17E0FFFC15E0BFFD15E0BFFD17E0FFFC1710C00115E0BFFC17E8
:2009700010C00017E0BFFD1710C00015E0BFFC1710800017E0FFFD1710C00115E0BFFC1704
:20097800E0FFFD1710C000150005883AE037883ADFC00117DF000017DEC00204F800283A3C
:20098000DEFFFD04DFC00215DF000115DF00010400800134108E0A04E0BFFF1500000606CA
:20098800E0BFFF1710800017103EE83AE0BFFF1710BFFF04E0BFFF15E0FFFF17008001349F
:20099000108E0B0418BFF62E0001883AE037883ADFC00117DF000017DEC00204F800283A58
:20099800DEFFFD04DFC00215DF000115DF00010400800134108E0A04E0BFFF1500000606B2
:2009A000E0BFFF1710800017103EE83AE0BFFF1710BFFF04E0BFFF15E0FFFF170080013487
:2009A800108E0B0418BFF62E0001883AE037883ADFC00117DF000017DEC00204F800283A40
:2009B000DEFFFF04DF000015D839883A0001883AE037883ADF000017DEC00104F800283AF1
:2009B800DEFFF904DFC00615DF000515DF000504E13FFC15E17FFD15E1BFFE15E1FFFF1560
:2009C000E0800217D8800015E1FFFF17E1BFFE17E17FFD17E13FFC1700428900E037883A3B
:2009C800DFC00117DF000017DEC00204F800283ADEFFF904DF000615DF000604E13FFE1574
:2009D000E17FFF15E0BFFF17E0BFFA150005303AE0BFFB15E0FFFB1700BFFF841884703A99
:2009D8001001703AE0BFFB17E0BFFC1500C00044E0BFFA171884983A1007883AD0A4D51788
:2009E0001884B03AD0A4D515D0A4D517100170FAE0BFFC17E0BFFD15E0BFFD171001703A67
:2009E8000005883A0001883AE037883ADF000017DEC00104F800283ADEFFF904DF000615C5
:2009F000DF000604E13FFE15E17FFF15E0BFFF17E0BFFA150005303AE0BFFB15E0FFFB17E5
:2009F80000BFFF841884703A1001703AE0BFFB17E0BFFC1500C00044E0BFFA171884983A19
:200A00000084303A1007883AD0A4D5171884703AD0A4D515D0A4D517100170FAE0BFFC177E
:200A0800E0BFFD15E0BFFD171001703A0005883A0001883AE037883ADF000017DEC00104B3
:200A1000F800283ADEFFFC04DF000315DF000304E13FFE15E17FFF15000530FAE0BFFD152B
:200A180000C00044E0BFFF171884983A1007883AE0BFFD171884703A1004C03A10803FCC1C
:200A2000E037883ADF000017DEC00104F800283ADEFFF504DFC00A15DF000915DF0009046D
:200A2800E13FFC15E17FFD15E1BFFE15E1FFFF1500BFFA84E0BFF715E0BFFD17E0BFF8151D
:200A3000E0BFF817108008081000271E0005303AE0BFFB15E0FFFB1700BFFF841884703A6C
:200A38001001703AE0BFFB17E0BFFA15008001341097B104E0FFF817180690FA10C5883A46
:200A4000E0FFFE1710C00015008001341097B104E0FFF817180690FA10C5883A10800104EA
:200A4800E0FFFF1710C00015E0BFFE1710000526E0BFF817100B883AE13FFC170042730052
:200A500000000406E0BFF817100B883AE13FFC1700427B80E0BFF715E0BFFA17E0BFF91579
:200A5800E0BFF9171001703AE0BFF717E037883ADFC00117DF000017DEC00204F800283AE3
:200A6000DEFFF804DFC00715DF000615DC000515DF000604E13FFB15E17FFC15E1BFFD15B6
:200A6800E1FFFE15E1BFFE17E17FFD17E13FFC170042C080E0BFFA15E0BFFA1710002216F7
:200A70000400013484127804E0BFFA17014003041009883A00437D008085883A10C00017DA
:200A7800E0BFFB1710C000150400013484127804E0BFFA17014003041009883A00437D00EA
:200A80008085883A1080010410C00017E0BFFB1710C001150400013484127804E0BFFA1781
:200A8800014003041009883A00437D008085883A1080020410C00017E0BFFB1710C002158F
:200A9000E13FFA170042D6400001883AE6FFFF04DFC00217DF000117DC000017DEC00304CB
:200A9800F800283ADEFFFB04DFC00415DF000315DF000304E13FFD15E17FFE15E1BFFF151A
:200AA00001C07FC401800044E17FFD170100013421127B040042980001C07FC4000D883A64
:200AA800E17FFE1701000134211278040042980001C07FC401800044E17FFF170100013485
:200AB00021127E04004298000001883AE037883ADFC00117DF000017DEC00204F800283A50
:200AB800DEFFFE04DFC00115DF000015D839883AD0A0071710000326D0A00717103EE83AFE
:200AC00000000106D0A4D104E037883ADFC00117DF000017DEC00204F800283ADEFFFB0466
:200AC800DFC00415DF000315DC000215DF000304E13FFE15E0BFFE171080021710D00034E2
:200AD000E0BFFE1710C00215E03FFD15000023060400013484127804E0BFFD1701400304CB
:200AD8001009883A00437D008085883A10C00017E0BFFE17108000171880151E0400013456
:200AE00084127804E0BFFD17014003041009883A00437D008085883A10800204108000174A
:200AE80010000B0E01400304E13FFD1700437D001007883A00800134109278041887883A7C
:200AF000E0BFFE171880022600BFFCC400000806E0BFFD1710800044E0BFFD15D0A0061720
:200AF8001007883AE0BFFD1718BFD92E0005883AE6FFFF04DFC00217DF000117DC00001723
:200B0000DEC00304F800283ADEFFF604DFC00915DF000815DF000804E13FFD15E17FFE15B6
:200B0800E1BFFF1500BFFFC4E0BFF91500BFFB44E0BFFA15E03FFB15D1600404E13FFD17A2
:200B10000042FB00E0BFF815E0BFF8171000051EE13FFD1700430400E0BFF8150080004410
:200B1800E0BFFB15E0BFF81710002B26E13FF81700431480E0BFF915E0BFF9171000030E7C
:200B2000E0BFF917E0BFFA150000250601400304E13FF91700437D001007883A0080013467
:200B2800109278041885883AE0BFFC15E0FFFE170090003410BFFFC41886703AE0BFFC173C
:200B300010C00215E0BFFB171000051EE13FFC170042B1C0E0BFFA15E0BFFA171000101660
:200B3800E0BFF8171080031710000826E0BFF81710800317E1FFFF17E1BFFE17E17FFD1790
:200B4000E13FFC17103EE83A000001060005883AE0BFFA150000020600BFFB44E0BFFA15C2
:200B4800E0BFFA171000090EE13FF9170042D6400042AE001007883AE0BFFA170085C83A2E
:200B50001880001500BFFFC400000106E0BFF917E037883ADFC00117DF000017DEC0020476
:200B5800F800283ADEFFFC04DFC00315DF000215DC000115DF000204E13FFE15E0BFFE17DB
:200B6000108000D01000111E0400013484127804E0BFFE17014003041009883A00437D00F4
:200B68008085883A10800204100000150400013484127804E0BFFE17014003041009883AC9
:200B700000437D008085883A100000150001883AE6FFFF04DFC00217DF000117DC0000176C
:200B7800DEC00304F800283ADEFFFA04DF000515DF000504E13FFF150005303AE0BFFC154F
:200B8000E0FFFC1700BFFF841884703A1001703AE0BFFC17E0BFFB15E0BFFF17E0BFFD1559
:200B8800E0BFFD1710800017E0FFFD1718C0011710C00115E0BFFD1710800117E0FFFD17DC
:200B900018C0001710C00015E0BFFD17E0FFFD1710C00115E0BFFD17E0FFFD1710C000155A
:200B9800E0BFFB17E0BFFE15E0BFFE171001703A0001883AE037883ADF000017DEC0010436
:200BA000F800283ADEFFFB04DFC00415DF000315DF000304D0A00917E0BFFD15D0A4D717C7
:200BA80010800044D0A4D71500002E06E0BFFD1710800017E0BFFE15E0BFFD17108004036F
:200BB00010803FCC10000426D0A4D7171000021EE0BFFD1710000405E0BFFD171080021796
:200BB800D0E4D71718801D36E0BFFD171080040310803FCC1000191EE0BFFD171080031707
:200BC000E0FFFD1718C005171809883A103EE83AE0BFFF15E0BFFF171000031EE13FFD170E
:200BC8000042DE8000000D06E0BFFD1710C00217E0BFFF171887883AE0BFFD1710C002150E
:200BD000E0BFFD1710C00217D0A4D7171880032EE0BFFD1700C0004410C00405E0BFFE17FA
:200BD800E0BFFD15E0FFFD17D0A0090418BFCF1E0001883A0001883AE037883ADFC0011702
:200BE000DF000017DEC00204F800283ADEFFFF04DF000015D839883A000170FA0001883A2C
:200BE800E037883ADF000017DEC00104F800283ADEFFFA04DFC00515DF000415DF000404AE
:200BF000E13FFE15E17FFF15E0BFFF1710800017E0BFFC15E13FFE170041220010800044C6
:200BF800E0BFFD1500000D06E0BFFC1710800217E0FFFD17180D883AE17FFE171009883A94
:200C000000432DC01000021EE0BFFC1700000706E0BFFC1710800017E0BFFC15E0FFFC17BA
:200C0800E0BFFF1718BFF01E0005883AE037883ADFC00117DF000017DEC00204F800283AE7
:200C1000DEFFFB04DFC00415DF000315DF000304E13FFF15D0A00217E0BFFD1500003106AE
:200C1800E0BFFD17108002171009883A00412200E0BFFE15E0BFFD1710C00217E0BFFE1720
:200C200010BFFFC41885883A1080000310803FCC1080201C10BFE00410800BD81000031E72
:200C2800E0BFFE1710BFFFC4E0BFFE15E0BFFE17E0FFFF171885883A1080000310803FCC7E
:200C30001080201C10BFE00410800BE01000081EE0BFFE17E0FFFF171885883A10800003D9
:200C380010803FCC1080201C10BFE00410000A1EE0BFFD1710800217E0FFFE17180D883A13
:200C4000E17FFF171009883A00432DC01000021EE0BFFD1700000706E0BFFD1710800017C9
:200C4800E0BFFD15E0FFFD17D0A0020418BFCC1E0005883AE037883ADFC00117DF00001764
:200C5000DEC00204F800283ADEFFFA04DFC00515DF000415DC000315DF000404E13FFE15EC
:200C580000BFFA04E0BFFD15E03FFC1500001D060400013484127804E0BFFC170140030476
:200C60001009883A00437D008085883A108000171000111E0400013484127804E0BFFC172F
:200C6800014003041009883A00437D008085883AE0FFFE1710C00015D0E00617E0BFFC176A
:200C70001880020EE0BFFC17D0A00615E0BFFC17E0BFFD1500000606E0BFFC17108000448A
:200C7800E0BFFC15E0BFFC1710800810103FE01EE0BFFD17E6FFFF04DFC00217DF000117BB
:200C8000DC000017DEC00304F800283ADEFFFE04DF000115DF000104E13FFF15E0BFFF17C1
:200C880010BFFE8410C0042818001A1E100690BA00800134108C91041885883A1080001763
:200C90001000683A0004328400043284000432940004329400043294000432840004328C44
:200C980000043294000432840004328400043294000432840004328C000432940004329424
:200CA0000004328400800044000003060005883A000001060005883AE037883ADF00001749
:200CA800DEC00104F800283A200B883A000F883A000D883A0009883A00433341DEFFFE0441
:200CB000000B883ADC000015DFC001152021883A004348C08009883A00437F80218D883A66
:200CB800218008262080000328C0000310C0022610C5C83AF800283A210000442940004484
:200CC000003FF7060005883AF800283A2005883A2007883A218D883A198005262900000387
:200CC80018C0004429400044193FFFC5003FFA06F800283A008001341092D80410C0001774
:200CD000DEFFF904DC0000151C000C17DD400515DD000415DCC00315DC800215DC40011574
:200CD800DFC00615202B883A2823883A3027883A3825883A1029883A8000021E1C000D0428
:200CE0001C000C158080011700C007C41880110E00800034108000041000021E00BFFFC463
:200CE8000000310601002304000000001021883A103FFA2610000115A080001710C00C17DB
:200CF00080C0001514000C1580002215A8001D2600000606A8001B26808022171000091E53
:200CF8000080003410800004103FEC260100420400000000103FE9261000401510004115C3
:200D00008080221581400117010000442947883A18C7883A10C7883A1CC000152148983AE6
:200D080011404017290AB03A114040151C80201500C00084A8C0031E10C041171908B03A8F
:200D1000110041158080011710C00044108000841085883A1085883A80C0011580A1883A35
:200D1800844000150005883ADFC00617DD400517DD000417DCC00317DC800217DC400117CF
:200D2000DC000017DEC00704F800283ADEFFF504DD00051505000134DC800315DFC00A1584
:200D2800DF000915DDC00815DD800715DD400615DCC00415DC400215DC000115D90000157B
:200D30002825883AA512D804A44000178CC00C178C400C04980045269C0001170090003440
:200D380010BFFFC49D40221785BFFFC480A1883A8421883A8421883AAC2F883A8400020414
:200D40009C21883AB000271690000726A800041EB5BFFFC4BDFFFF04843FFF04003FF906A6
:200D4800B9002017913FFA1E9900011782000017213FFFC4B100021E9D800115000001063B
:200D500080000015403FF2269F000117A8000526008000441592983AA9404017494A703A13
:200D58002800021E403EE83A00000906A90041174908703A2000041EB9400017D900001746
:200D6000403EE83A00000206B9000017403EE83A99000117E13FCC1E89000017993FDC2626
:200D6800003FC906008000341080000410000F2699400117990000172800091E2000082692
:200D700089000015A8000226A809883A000000009809883A000000008CC00017003FBD06BA
:200D78009823883A2027883A003FBA06DFC00A17DF000917DDC00817DD800717DD400617A6
:200D8000DD000517DCC00417DC800317DC400217DC000117DEC00B04F800283A20001B16AC
:200D8800000F883A28001616200D883A29001A2E0080080400C000440000010610000D26EC
:200D9000294B883A10BFFFC418C7883A293FFB360005883A180007260005883A31400236C5
:200D9800314DC83A10C4B03A1806D07A280AD07A183FFA1E380001260085C83AF800283A6A
:200DA000014BC83A39C0005C003FE7060109C83A01C00044003FE30600C00044003FEE06F4
:200DA80020001716000F883A2005883A280012162900162E0180080400C0004400000106D1
:200DB00030000A26294B883A31BFFFC418C7883A293FFB36180005261806D07A114001366D
:200DB8001145C83A280AD07A183FFB1E380001260085C83AF800283A014BC83A003FEC0618
:200DC0000109C83A01C00044003FE70600C00044003FF106200D883A2900152E28001416EF
:200DC8000080080400C000440000020610000E2628000516294B883A10BFFFC418C7883A83
:200DD000293FFA36180008260005883A31400236314DC83A10C4B03A1806D07A280AD07A93
:200DD800183FFA1EF800283A0005883AF800283A00C00044003FF4062005883A2900122E84
:200DE000280011160180080400C000440000020630000C2628000516294B883A31BFFFC47D
:200DE80018C7883A293FFA36180006261806D07A114001361145C83A280AD07A183FFB1E3A
:200DF000F800283AF800283A00C00044003FF7060005883A2000072620C0004C2008D07A3D
:200DF800180001261145883A294B883A203FFA1EF800283AF800283ADEFFFD04DF0002154F
:200E0000DF000204E13FFF150001883AE0BFFF17E0BFFE15E0BFFE1710000226002AF07019
:200E080000000106002AF0B0003FFF066C6C65487266206F4E206D6F20736F690021494961
:200E10000000000A7665642F61746A2F61755F67305F7472000000007665642F61746A2FEF
:200E180061755F67305F7472000000007665642F6C756E2F0000006C000000000000000051
:200E20000000000000000000000000000000000000000000000000000000000000000000B2
:200E28000000000000000000000000000000000000000000000000000000000000000000AA
:200E30000000000000000000000000000000000000000000000000000000000000000000A2
:200E380000000000000000000000000000000000000000000000000000000000000000009A
:2012E000000000000000000000000000000000000004393800043940000439480000000077
:2012E8000000000000000000000000000000000000000000000000000000000000000000E6
:2012F0000000000000000000000000000000000000000000000000000000000000000000DE
:2012F8000000000000000000000000000000000000000000000000000000000000000000D6
:201300000000000000000000000000000000000000000000000000000000000000000000CD
:201308000000000000000000000000000000000000000000000000000000000000000000C5
:2013100000000000000000000000000000000004000000000001000A000000000002000AA2
:20131800000000000000000000000000000000000000000000043858000000000004179472
:20132000000416D4000417340000000000000000000417E4000810E80000000A0000000067
:201328000000000000000000000000000000000000000000000000000000000000000000A5
:2013300000000000000000000000000000000000000000000000000000000000000000009D
:20133800000000000000000000000000000000000000000000000000000000000000000095
:2013400000000000000000000000000000000000000000000000000000000000000000008D
:2017300000000000000000000000000000044B7000044B700004386C000000000000000073
:2017380000000000000424F4000000000000000000000000000449B8000000000000000070
:20174000000449B80000000000000000000449B8000000000000000000000000000000007F
:20174800000000000000000000000000000000000000000000000000000000000000000081
:20175000000000000000000000000000000000000000000000000000000000000000000079
:20175800000000000000000000000000000000000000000000000000000000000000000071
:20176000000000000000000000000000000000000000000000000000000000000000000069
:20176800000000000000000000000000000000000000000000000000000000000000000061
:20177000000000000000000000000000000000000000000000000000000000000000000059
:20177800000000000000000000000000000000000000000000000000000000000000000051
:20178000000000000000000000000000000000000000000000000000000000000000000049
:20178800000000000000000000000000000000000000000000000000000000000000000041
:20179000000000000000000000000000000000000000000000000000000000000000000039
:201798000000000000000000000000000000000000000000000438780004387800044B6812
:2017A00000044B68000449B8000449B8FFFFFFFF00000000FFFFFFFF00044B8400044B84CA
:2017A800000000000000000000000000000000000000000000000000000000000000000021
:2017B000000000000000000000000000000000000000000000000000000000000000000019
:2017B800000000000000000000000000000000000000000000000000000000000000000011
:2017C000000000000000000000000000000000000000000000000000000000000000000009
:00000001FF
